10000001912603031244180026030323060166    420701  MA0807  810501  18015360    18015360    1.hana         1.hana    000621128    
A01202603031244180042070100MA0807000619000094ﾘｶｰﾜｰﾙﾄﾞ ﾊﾅ                                                                        
B0120260303001000299901260303260304   1330           ﾆﾉﾐﾔ      ﾆﾉﾐﾔ                         00                                  
D0101　メルシャン　無添加　ペットボトル　赤　１．５Ｌ                4973480311460151242000006000000100000000000472800          D0102　キリン　氷結ストロング　シチリア産レモン糖類ゼロ　５００ｍｌ  4901411035123184535000024000000100000000000357000          D0103　キリン　氷結ストロング　グレープフルーツ　糖類ゼロ　５００ｍ  4901411035178184537000024000000100000000000357000          D0104　キリン　氷結ストロング　グレープフルーツ　糖類ゼロ　３５０ｍ  4901411035161184536000024000000200000000000252600          D0105　３０°いいちこスペシャル７２０ｍｌ（麦）                      4906666221413122884000006000000100000000001008600          D0106　ラシャス　フレンチグリーンアップル　３３０ｍｌ                4571462804063155247000024000000100000000001070400          B0120260303002000299901260303260304   1330           ﾆﾉﾐﾔ      ﾆﾉﾐﾔ                         00                                  D0101　ＭＹ　ライム３００ｍｌ                                        4902701352166241038000012000000100000000000278400          D0102　ＭＹ　レモン３００ｍｌ                                        4902701352173241039000012000000100000000000278400          D0103　キリン　氷結ストロング　シチリア産レモン　糖質ゼロ　３５０ｍ  4901411035109184525000024000000100000000000252600          D0104　キリン　本搾り　ピンクグレープフルーツ３５０ｍｌ              4901411055480184546000024000000200000000000252600          D0105　メルシャン　無添加ペットボトル　白　１．５Ｌ                  4973480311491151248000006000000100000000000472800          D0106　２５°いいちこパック９００ｍｌ（麦）                          4906666100558123556000006000000100000000000409800          B0120260303003000299901260303260304   1330           ﾆﾉﾐﾔ      ﾆﾉﾐﾔ                         00                                  D0101　キリンクラシックラガー５００ｍｌ                              4901411004754143180000024000000100000000000516000          D0102　キリン　本搾り　レモン　３５０ｍｌ                            4901411025896184299000024000000400000000000252600          D0103　ＭＹ　レモン７２０ｍｌ                                        4902701352142241037000012000000100000000000441600          D0104◎２５°楽　やわらかブレンド２．７Ｌ                            4973480117505121091000006000000100000000000726000          D0105　キリン　本搾り　グレープフルーツ　３５０ｍｌ                  4901411076454184178000024000000200000000000252600          D0106　メルシャン　おいしい酸化防止無添加　ふくよか赤　７２０ｍｌ    4973480326945151215000012000000100000000000516000          B0120260303004000299901260303260304   1330           ﾆﾉﾐﾔ      ﾆﾉﾐﾔ                         00                                  D0101　キリン　氷結　九州産ゆず３５０ｍｌ                            4901411124377185923000024000000100000000000252600          D0102　３０°いいちこ「空山独酌」７２０ｍｌ（麦）                    4906666100060122984000006000000100000000000909600          D0103　ハイネケン３５０ｍｌ                                          4595315464037143052000024000000100000000000445200          D0104　ハイネケンロングネック瓶３３０ｍｌ                            4595315464013142056000024000000100000000000520800          D0105　月桂冠辛口パック３Ｌ                                          4901030231067114064000004000000100000000000508000          D0106○デカイパー　ピーチツリー　７００ｍｌ                          4901411031217172017000006000000100000000000784200          B0120260303005000299901260303260304   1330           ﾆﾉﾐﾔ      ﾆﾉﾐﾔ                         00                                  D0101　キリン　麒麟特製　ホワイトサワー３５０ｍｌ                    4901411101590185089000024000000100000000000252600          D0102　メルシャン　ビストロ（赤甘口）　７２０ｍｌ                    4973480323319151137000012000000100000000000409200          D0103○キリン　一番搾り１３５ｍｌ                                    4901411148311143011000030000000100000000000251250          D0104　キリン　本搾り　オレンジ　５００ｍｌ                          4901411047485184003000024000000100000000000357000          D0105　キリン　麒麟特製　グレープサワー５００ｍｌ                    4901411101552185350000024000000100000000000357000          D0106　メルシャン　甘熟ぶどうのおいしいワイン　赤　５００ｍｌ        4973480300044151208000012000000100000000000588000          B0120260303006000299901260303260304   1330           ﾆﾉﾐﾔ      ﾆﾉﾐﾔ                         00                                  D0101　キリン　生茶２Ｌペット                                        4909411069100215032000006000000100000000000102000          D0102　キリン　氷結　シャルドネスパークリング　３５０ｍｌ            4901411034683184401000024000000100000000000252600          D0103　キリン　トロピカーナオレンジ　ＬＬスリム１Ｌ                  4909411076672213031000006000000100000000000175200          D0104　ＭＹ　ライム７２０ｍｌ                                        4902701352135241036000012000000100000000000548400          D0105　スミノフアイス　２７５ｍｌ                                    5410316982061184166000024000000100000000000453600          D0106　キリン　氷結　パイナップル３５０ｍｌ                          4901411066998184265000024000000100000000000252600          B0120260303007000299901260303260304   1330           ﾆﾉﾐﾔ      ﾆﾉﾐﾔ                         00                                  D0101　キリン　氷結ＺＥＲＯ　グレープフルーツ　３５０ｍｌ            4901411047584184423000024000000100000000000252600          D0102　３７．５°ゴードン　ロンドン　ドライジン　７００ｍｌ          5000289925440162002000012000000100000000001236000          D0103　キリン　本搾り　グレープフルーツ５００ｍｌ                    4901411026176184218000024000000100000000000357000          D0104　キリン　氷結　無糖レモン　Ａｌｃ．４％　５００ｍｌ            4901411118697185525000024000000200000000000357000          D0105　キリン　氷結　無糖レモン　Ａｌｃ．７％５００ｍｌ              4901411118727185523000024000000100000000000357000          D0106　キリン　本搾りプレミアム　４種のレモンと日向夏３５０ｍｌ      4901411121451181070000024000000200000000000297000          B0120260303008000299901260303260304   1330           ﾆﾉﾐﾔ      ﾆﾉﾐﾔ                         00                                  D0101　キリン　本搾りプレミアム　３種の柑橘とシークヮーサー３５０ｍ  4901411121499181072000024000000200000000000297000          D0102　キリン　氷結　オレンジ３５０ｍｌ                              4901411115856185197000024000000100000000000252600          D0103　キリン　ＳＰＲＩＮＧ　ＶＡＬＬＥＹ　シルクエール白３５０ｍｌ  4901411142128142753000024000000100000000000439800          B0120260303009000499901260303260304   1330         ｻﾝﾄﾞｰﾑ    ｻﾝﾄﾞｰﾑ                         00                                  D0101　月桂冠特撰７２０ｍｌ                                          4901030055069111395000012000000100000000000966000          D0102　キリン　氷結ストロング　シチリア産レモン糖類ゼロ　５００ｍｌ  4901411035123184535000024000000200000000000357000          D0103　キリン　麒麟特製　コーラサワー５００ｍｌ                      4901411101422184890000024000000100000000000357000          D0104　キリン　氷結　無糖グレープフルーツ　Ａｌｃ．７％　３５０ｍｌ  4901411130835185837000024000000200000000000252600          D0105　キリン　氷結ストロング　グレープフルーツ　糖類ゼロ　３５０ｍ  4901411035161184536000024000000200000000000252600          D0106　キリン　氷結　グレープフルーツ３５０ｍｌ                      4901411003085184660000024000000100000000000252600          B0120260303010000499901260303260304   1330         ｻﾝﾄﾞｰﾑ    ｻﾝﾄﾞｰﾑ                         00                                  D0101　　ギルビー　ジン　３７．５％　７００ｍｌ                      5010103944687162178000012000000100000000000912000          D0102　ＭＹ　ライム３００ｍｌ                                        4902701352166241038000012000000100000000000278400          D0103　ＭＹ　レモン３００ｍｌ                                        4902701352173241039000012000000100000000000278400          D0104　キリン　氷結ストロング　シチリア産レモン　糖質ゼロ　３５０ｍ  4901411035109184525000024000000800000000000252600          D0105　ＭＹ　グレナデン　シロップ３００ｍｌ                          4902701352180241040000012000000100000000000292800          D0106　メルシャン　無添加ふくよか　赤　１．５Ｌ                      4973480311477151243000006000000100000000000472800          B0120260303011000499901260303260304   1330         ｻﾝﾄﾞｰﾑ    ｻﾝﾄﾞｰﾑ                         00                                  D0101　メルシャン　無添加ペットボトル　白　１．５Ｌ                  4973480311491151248000006000000100000000000472800          D0102　２５°いいちこパック９００ｍｌ（麦）                          4906666100558123556000006000000100000000000409800          D0103　キリンクラシックラガー５００ｍｌ                              4901411004754143180000024000000100000000000516000          D0104　キリン　本搾り　レモン　３５０ｍｌ                            4901411025896184299000024000000100000000000252600          D0105　メルシャン　ボンルージュ　ペットボトル　赤　１．５Ｌ          4973480311453151244000006000000100000000000559200          D0106　キリン　本搾り　グレープフルーツ　３５０ｍｌ                  4901411076454184178000024000000300000000000252600          B0120260303012000499901260303260304   1330         ｻﾝﾄﾞｰﾑ    ｻﾝﾄﾞｰﾑ                         00                                  D0101○キリン　杏露酒　５００ｍｌ                                    4901411067322183028000012000000100000000000669600          D0102　キリン　氷結　九州産ゆず３５０ｍｌ                            4901411124377185923000024000000200000000000252600          D0103　キリン　林檎酒５００ｍｌ                                      4901411067469183044000012000000100000000000612000          D0104　菊水　菊水の純米酒７２０ｍｌ                                  4930391120833118918000012000000100000000001010400          D0105○菊水ふなぐち一番しぼり　２００ｍｌ                            4930391140121113177000030000000100000000000726000          D0106　ハイネケン３５０ｍｌ                                          4595315464037143052000024000000100000000000445200          B0120260303013000499901260303260304   1330         ｻﾝﾄﾞｰﾑ    ｻﾝﾄﾞｰﾑ                         00                                  D0101　朝日酒造純米酒　朝日山７２０ｍｌ                              4984283920018113003000006000000100000000000436200          D0102　古越龍山　金龍　６００ｍｌ                                    4906134081020183008000012000000100000000000800400          D0103　月桂冠スペシャルフリー　ノンアルコール瓶２４５ｍｌ            4901030367063210737000012000000100000000000386400          D0104　スミノフウオッカ４０°　７５０ｍｌ                            4901411031316162048000012000000100000000001183200          D0105　ＫＳＧ　ロバートブラウン　７５０ｍｌ                          0000049179330131049000012000000100000000002122800          D0106　キリン　ウィスキー陸　５００ｍｌ                              4901411116853131281000012000000100000000001382400          B0120260303014000499901260303260304   1330         ｻﾝﾄﾞｰﾑ    ｻﾝﾄﾞｰﾑ                         00                                  D0101　菊水菊水の辛口７２０ｍｌ                                      4930391130320118248000012000000100000000000890400          D0102　月桂冠上撰　さけパック９００ｍｌ                              4901030140017114026000006000000100000000000436800          D0103　ホワイトホースファインオールド７００ｍｌ                      4901411052809132003000012000000100000000001150800          D0104○菊水菊水の辛口　１．８Ｌ                                      4930391130313113093000006000000100000000000924600          D0105　キリン　麒麟特製　コーラサワー３５０ｍｌ                      4901411101385184882000024000000100000000000252600          D0106　２０°楽　やわらかブレンド４Ｌ                                4973480117482121095000004000000100000000000618000          B0120260303015000499901260303260304   1330         ｻﾝﾄﾞｰﾑ    ｻﾝﾄﾞｰﾑ                         00                                  D0101　ホワイトホース１２年　７００ｍｌ                              4901411031675132013000012000000100000000002196000          D0102　キリン　氷結ＺＥＲＯ　レモン　５００ｍｌ                      4901411047560184424000024000000300000000000357000          D0103　Ｊ－ＣＲＡＦＴ　ＨＯＰＰＩＮＧ　ジューシーＩＰＡ３５０ｍｌ    4962840966709142366000024000000100000000000590400          D0104　キリン　ファイア　ブラック１８５ｇ                            4909411083328214017000030000000200000000000195000          D0105　キリン　氷結　無糖シークヮーサー　ＡＬＣ．７％　３５０ｍｌ    4901411122052185952000024000000200000000000252600          D0106　キリン　氷結ＺＥＲＯ　グレープフルーツ　５００ｍｌ            4901411047607184425000024000000100000000000357000          B0120260303016000499901260303260304   1330         ｻﾝﾄﾞｰﾑ    ｻﾝﾄﾞｰﾑ                         00                                  D0101　ＭＹ　ライム７２０ｍｌ                                        4902701352135241036000012000000100000000000548400          D0102　キリン　一番搾り　糖質ゼロ５００ｍｌ                          4901411105215142369000024000000300000000000516000          D0103　キリン　本搾り　グレープフルーツ５００ｍｌ                    4901411026176184218000024000000100000000000357000          D0104　キリン　麒麟特製　レモンサワー　ＡＬＣ．９％３５０ｍｌ        4901411101446184880000024000000200000000000252600          D0105　キリン　グッドエール５００ｍｌ                                4901411141244142860000024000000100000000000540000          D0106　キリン　氷結　無糖レモン　Ａｌｃ．７％５００ｍｌ              4901411118727185523000024000000100000000000357000          B0120260303017000499901260303260304   1330         ｻﾝﾄﾞｰﾑ    ｻﾝﾄﾞｰﾑ                         00                                  D0101　キリン　氷結　無糖グレープフルーツ　Ａｌｃ．７％　５００ｍｌ  4901411130859185838000024000000100000000000357000          D0102　キリン　氷結　無糖グレープフルーツ　Ａｌｃ．４％　３５０ｍｌ  4901411113678185835000024000000200000000000252600          D0103　キリン　氷結　無糖ウメ　Ａｌｃ．７％　３５０ｍｌ              4901411134536181084000024000000100000000000252600          D0104　キリン　氷結　オレンジ３５０ｍｌ                              4901411115856185197000024000000100000000000252600          B0120260303018002299901260303260304   1330           ｵﾊﾞﾏ      ｵﾊﾞﾏ                         00                                  D0101　キリン　氷結ストロング　シチリア産レモン糖類ゼロ　５００ｍｌ  4901411035123184535000024000000100000000000357000          D0102　キリン　氷結　無糖グレープフルーツ　Ａｌｃ．７％　３５０ｍｌ  4901411130835185837000024000000100000000000252600          D0103　キリン炭酸ガス　ボンベ付５Ｋｇ                                4901411188102411083000001000000000000010000740000          D0104　キリン　ホワイトホース　ハイボール３５０ｍｌ                  4901411086798185054000024000000100000000000374400          D0105　ギルビー　ジン４７．５°　７００ｍｌ                          5010103944830162162000012000000100000000001165200          D0106○２５°いいちこ（麦）瓶１．８Ｌ                                4906666111110122049000006000000200000000000795000          B0120260303019002299901260303260304   1330           ｵﾊﾞﾏ      ｵﾊﾞﾏ                         00                                  D0101　信州マルス蒸留所越百（こすも）　モルトセレクション７００ｍｌ  4976881501164131184000006000000100000000001897800          D0102　キリン　茘枝酒５００ｍｌ　（ライチ）                          4901411067407183005000012000000100000000000612000          D0103　ホワイトホース　樽詰めハイボール　７Ｌ                        4901411078403171447000001000000000000030000481900          D0104　ＭＹ　レモン３００ｍｌ                                        4902701352173241039000012000000100000000000278400          D0105　キリンラガー　生樽１５Ｌ　                                    4901411180502143122000001000000000000020000769200          D0106　キリン　氷結ストロング　シチリア産レモン　糖質ゼロ　３５０ｍ  4901411035109184525000024000000100000000000252600          B0120260303020002299901260303260304   1330           ｵﾊﾞﾏ      ｵﾊﾞﾏ                         00                                  D0101　２５°いいちこパック９００ｍｌ（麦）                          4906666100558123556000006000000100000000000409800          D0102◎キリンラガー５００ｍｌ                                        4901411157610143037000024000000100000000000516000          D0103○２０°いいちこ（麦）パック１．８Ｌ                            4906666112124122280000006000000100000000000682800          D0104　キリン　零ＩＣＨＩ（ゼロイチ）３５０ｍｌ                      4901411092577211485000024000000200000000000249000          D0105◎キリン麒麟淡麗＜生＞３５０ｍｌ                                4901411512518143004000024000000200000000000306000          D0106　ジョニーウォーカー　レッドラベル　７００ｍｌ                  5000267014203132439000012000000100000000001401600          B0120260303021002299901260303260304   1330           ｵﾊﾞﾏ      ｵﾊﾞﾏ                         00                                  D0101○キリン　クラシックラガー　大瓶６３３ｍｌ                      4901411528816141026000020000000100000000000582400          D0102　メルシャン　おいしい酸化防止無添加ワイン　赤　７２０ｍｌ      4973480326938151326000012000000100000000000516000          D0103　キリン　グリーンズフリー　小瓶３３４ｍｌ                      4901411122342211827000030000000100000000000418520          D0104　キリン　一番搾り　生樽７Ｌ　                                  4901411150109143166000001000000000000040000412200          D0105○デカイパー　ピーチツリー　７００ｍｌ                          4901411031217172017000006000000100000000000784200          D0106　キリン　氷結　無糖　レモン　コンク１．８Ｌ                    4901411106274171909000006000000100000000001320000          B0120260303022002299901260303260304   1330           ｵﾊﾞﾏ      ｵﾊﾞﾏ                         00                                  D0101　キリン　一番搾り生３ＬＰＥＴ　                                4901411108933143209000003000000200000000000402000          D0102◎キリン麒麟淡麗＜生＞５００ｍｌ                                4901411512716143007000024000000300000000000430800          D0103　キリン　一番搾り　黒生３５０ｍｌ                              4901411079646142247000024000000100000000000391200          D0104　キリン　麒麟特製　ジンジャーエールサワー３５０ｍｌ            4901411126784185972000024000000100000000000252600          D0105　ハイネケン　０．０　３３０ｍｌ缶                              4595315464297211867000024000000100000000000283200          D0106　クレイモア　７００ｍｌ                                        5010196023313132019000012000000100000000001035600          B0120260303023002299901260303260304   1330           ｵﾊﾞﾏ      ｵﾊﾞﾏ                         00                                  D0101　メルシャン　ビストロ　ボックス　白　パック　１．８Ｌ          4973480314362151257000006000000100000000000464400          D0102　キリン　氷結　無糖シークヮーサー　ＡＬＣ．７％　３５０ｍｌ    4901411122052185952000024000000100000000000252600          D0103　キリン　トロピカーナオレンジ　ＬＬスリム１Ｌ                  4909411076672213031000006000000100000000000175200          D0104　マイヤーズラム　７００ｍｌ                                    0088004039325162007000012000000100000000001291200          D0105　永昌源　陳年紹興貴酒　５年　６４０ｍｌ                        4906134017005183032000012000000100000000001272000          D0106　キリン　氷結　グレープフルーツ５００ｍｌ                      4901411000428184661000024000000100000000000357000          B0120260303024002299901260303260304   1330           ｵﾊﾞﾏ      ｵﾊﾞﾏ                         00                                  D0101　キリン　本搾り　ライム３５０ｍｌ                              4901411040004185467000024000000100000000000252600          D0102　キリン　麒麟百年　極み仕立て　グレフルサワー３５０ｍｌ        4901411130279185966000024000000100000000000268800          D0103　キリン　氷結　無糖レモン　Ａｌｃ．７％５００ｍｌ              4901411118727185523000024000000100000000000357000          D0104○２５°いいちこ（麦）瓶９００ｍｌ                              4906666111318122050000012000000100000000000844800          D0105　キリン　一番搾り　生樽１５Ｌ                                  4901411188003143277000001000000000000130000769200          D0106　ダンシングフレーム　カルメネール　７５０ｍｌ                  4962840967133152270000012000000100000000000519600          B0120260303025002299901260303260304   1330           ｵﾊﾞﾏ      ｵﾊﾞﾏ                         00                                  D0101　キリン　のどごし＜生＞　３５０ｍｌ                            4901411011523184067000024000000300000000000305112          D0102　キリン　午後の紅茶　おいしい無糖２Ｌ                          4909411048754215177000006000000100000000000102000          B0120260303026009199901260303260304   1330        ﾑｽﾋﾞﾉｸﾗ   ﾑｽﾋﾞﾉｸﾗ                         00                                  D0101　キリン　零ＩＣＨＩ（ゼロイチ）３５０ｍｌ                      4901411092577211485000024000000300000000000249000          D0102　キリン　ラブズスポーツ２Ｌ                                    4909411085452212092000006000000100000000000102000          D0103　２５°あらわざ桜島７２０ｍｌ（芋）                            4976881250994122527000012000000200000000000960000          D0104　キリン　茘枝酒５００ｍｌ　（ライチ）                          4901411067407183005000012000000100000000000612000          D0105　キリンラガー　生樽１５Ｌ　                                    4901411180502143122000001000000000000010000769200          D0106○キリン　一番搾り２５０ｍｌ                                    4901411511818143062000024000000400000000000312600          B0120260303027009199901260303260304   1330        ﾑｽﾋﾞﾉｸﾗ   ﾑｽﾋﾞﾉｸﾗ                         00                                  D0101　２５°いいちこ（麦）ポケット３００ｍｌ                        4906666161719122030000012000000100000000000409200          D0102　加賀の月半月３００ｍｌ                                        4952868400330113731000012000000100000000000499200          D0103　キリンラガー　生樽２０Ｌ                                      4901411188805143144000001000000000000050000992200          D0104　２５°麒麟　まろやか芋７２０ｍｌ                              4973480161652123009000012000000100000000000970800          D0105○２０°いいちこ（麦）瓶９００ｍｌ                              4906666112315122172000012000000100000000000736800          D0106　ＩＷハーパー１２年　７５０ｍｌ                                5000281004587132186000012000000100000000008388000          B0120260303028009199901260303260304   1330        ﾑｽﾋﾞﾉｸﾗ   ﾑｽﾋﾞﾉｸﾗ                         00                                  D0101　キリン　檸檬酒１．８Ｌ                                        4901411067605183073000006000000100000000000856200          D0102　フランジア　赤　７５０ｍｌ                                    4973480320790152314000012000000100000000000522000          D0103　キリン　ラガー　小瓶３３４ｍｌ                                4901411110318141041000030000000100000000000502520          D0104　シュヴァリエ　レイソン　ルージュ　３７５ｍｌ                  4973480619306158039000012000000100000000001240800          D0105　　ギルビー　ウォッカ　３７．５％　７００ｍｌ                  5010103944779162180000012000000100000000000912000          D0106　キリン麒麟淡麗　生樽７Ｌ                                      4901411503608148047000001000000000000100000378400          B0120260303029009199901260303260304   1330        ﾑｽﾋﾞﾉｸﾗ   ﾑｽﾋﾞﾉｸﾗ                         00                                  D0101　ダンシングフレーム　カベルネソービニヨン　７５０ｍｌ          4962840962817157894000012000000200000000000519600          D0102　コンチャイトロ　サンライズ　スパークリング　３７５ｍｌ        4973480835546153962000012000000100000000000621600          D0103　レッドブル　２５０ｍｌ缶                                      4560292290016212198000024000000200000000000302400          D0104　２５°白水（麦）パック１．８Ｌ                                4901411025971122150000006000000100000000000697800          D0105　２５°白水１．８Ｌ（麦）                                      4901411025933122121000006000000100000000000790200          D0106　ドラフトギネス缶３３０ｍｌ                                    0000050213245144005000024000000200000000000553800          B0120260303030009199901260303260304   1330        ﾑｽﾋﾞﾉｸﾗ   ﾑｽﾋﾞﾉｸﾗ                         00                                  D0101○キリン　一番搾り１３５ｍｌ                                    4901411148311143011000030000000500000000000251250          D0102　２５°白水９００ｍｌ（米）                                    4901411026039122605000006000000100000000000422400          D0103　フランジア　バックインボックス（白）３Ｌ                      4973480320233152332000004000000200000000000632800          D0104　ＭＹ　ライム７２０ｍｌ                                        4902701352135241036000012000000100000000000548400          D0105　ソルイマール　レッド　７５０ｍｌ                              4973480909667158462000012000000100000000000523200          D0106　ソルイマール　ホワイト　７５０ｍｌ                            4973480909674158470000012000000100000000000523200          B0120260303031009199901260303260304   1330        ﾑｽﾋﾞﾉｸﾗ   ﾑｽﾋﾞﾉｸﾗ                         00                                  D0101　セグラヴュータス　ブリュットレゼルバ　７５０ｍｌ              8410428300040155004000012000000100000000001614000          D0102　セグラヴュータス　ブリュットレゼルバ　３７５ｍｌ              8410428300743155407000012000000100000000001101600          D0103　セグラヴュータス　ブリュット　レゼルヴァ　ベビー　２００ｍｌ  4962840090046155461000024000000100000000001320000          D0104　永昌源　紹興貴酒　３年　６４０ｍｌ                            4906134016008183031000012000000100000000000879600          D0105　永昌源　陳年紹興貴酒　５年　３７５ｍｌ                        4906134017104183018000012000000100000000000782400          D0106　永昌源　陳年紹興貴酒　５年　６４０ｍｌ                        4906134017005183032000012000000100000000001272000          B0120260303032009199901260303260304   1330        ﾑｽﾋﾞﾉｸﾗ   ﾑｽﾋﾞﾉｸﾗ                         00                                  D0101　古越龍山　紹興酒　金龍　１８０ｍｌ                            4906134081044183013000024000000100000000000564000          D0102　キリン　濃厚梅酒　１．８Ｌパック                              4973480220670171026000006000000200000000000524400          D0103　キリン　ラブズスポーツ５５５ｍｌＰＥＴ                        4909411085438212004000024000000200000000000237600          D0104　ダンシングフレイム　シャルドネ　７５０ｍｌ                    4962840962848157915000012000000300000000000519600          D0105　旬三昧　旨口の酒パック２Ｌ                                    4978432055577116015000006000001500000000000404400          B0120260303033000399901260303260304   1330            ｻｶｲ       ｻｶｲ                         00                                  D0101　キリン　氷結　ウメ　３５０ｍｌ                                4901411037165184586000024000000100000000000252600          D0102　３０°いいちこスペシャル７２０ｍｌ（麦）                      4906666221413122884000006000000100000000001008600          D0103　キリン　氷結　グレープフルーツ３５０ｍｌ                      4901411003085184660000024000000100000000000252600          D0104　アーリータイムズホワイト　７００ｍｌ                          0088004054564132232000012000000100000000001336800          D0105　キリン　ホワイトホース　ハイボール３５０ｍｌ                  4901411086798185054000024000000100000000000374400          D0106　キリン　にごり杏露酒　３００ｍｌ                              4901411067667171230000012000000100000000000495600          B0120260303034000399901260303260304   1330            ｻｶｲ       ｻｶｲ                         00                                  D0101　ＭＹ　レモン３００ｍｌ                                        4902701352173241039000012000000100000000000278400          D0102　キリン　麒麟特製　ホワイトサワー５００ｍｌ                    4901411101637185090000024000000200000000000357000          D0103　メルシャン　無添加ふくよか　赤　１．５Ｌ                      4973480311477151243000006000000100000000000472800          D0104　ダンシングフレーム　カベルネソービニヨン　７５０ｍｌ          4962840962817157894000012000000100000000000519600          D0105　スミノフウオッカ５０°　７５０ｍｌ                            4901411031354162047000012000000100000000001238400          D0106　ジョニーウォーカー　レッドラベル　７００ｍｌ                  5000267014203132439000012000000100000000001401600          B0120260303035000399901260303260304   1330            ｻｶｲ       ｻｶｲ                         00                                  D0101　キリン　氷結　レモン５００ｍｌ                                4901411000473184659000024000000200000000000357000          D0102○キリン　杏露酒　５００ｍｌ                                    4901411067322183028000012000000100000000000669600          D0103　メルシャン　おいしい酸化防止無添加　ふくよか赤　７２０ｍｌ    4973480326945151215000012000000100000000000516000          D0104　キリン　林檎酒５００ｍｌ                                      4901411067469183044000012000000100000000000612000          D0105　キリン　生茶　５２５ｍｌペット                                4909411091903215031000024000000100000000000218400          D0106　明治屋　牛肉の粗挽き黒胡椒味４０ｇ                            4902701908141242235000024000000100000000001032000          B0120260303036000399901260303260304   1330            ｻｶｲ       ｻｶｲ                         00                                  D0101　ダンシングフレイム　メルロ　７５０ｍｌ                        4962840966006157903000012000000100000000000519600          D0102　古越龍山　金龍　６００ｍｌ                                    4906134081020183008000012000000100000000000800400          D0103　月桂冠スペシャルフリー　ノンアルコール瓶２４５ｍｌ            4901030367063210737000012000000100000000000386400          D0104　キリンファイア　挽きたて微糖１８５ｇ                          4909411083366214083000030000000100000000000195000          D0105　ダンシングフレイム　ソーヴィニヨンブラン　７５０ｍｌ          4962840962831157919000012000000100000000000519600          D0106　キリン　のどごし　ＺＥＲＯ５００ｍｌ                          4901411089638147214000024000000500000000000427800          B0120260303037000399901260303260304   1330            ｻｶｲ       ｻｶｲ                         00                                  D0101　ホワイトホース１２年　７００ｍｌ                              4901411031675132013000012000000100000000002196000          D0102　明治屋　ホワイトマシュマロ９０ｇ                              4902701922956244599000012000000100000000000151200          D0103　キリン　麒麟特製　ジンジャーエールサワー５００ｍｌ            4901411126845185973000024000000200000000000357000          D0104　月桂冠にごり酒７２０ｍｌ                                      4901030282564111403000006000000100000000000498000          D0105　古越龍山　紹興酒　金龍　１８０ｍｌ                            4906134081044183013000024000000100000000000564000          D0106　フォアローゼス　７００ｍｌ                                    4901411070766132381000012000000100000000001789200          B0120260303038000399901260303260304   1330            ｻｶｲ       ｻｶｲ                         00                                  D0101　ＭＹ　ライム７２０ｍｌ                                        4902701352135241036000012000000100000000000548400          D0102　キリン　かろやか梅酒　パック　１Ｌ                            4901411029443171249000006000000100000000000238200          D0103　マイヤーズラム　７００ｍｌ                                    0088004039325162007000012000000100000000001291200          D0104　キリン　氷結ＺＥＲＯ　グレープフルーツ　３５０ｍｌ            4901411047584184423000024000000100000000000252600          D0105　３７．５°ゴードン　ロンドン　ドライジン　７００ｍｌ          5000289925440162002000012000000100000000001236000          D0106　キリン　ＳＰＲＩＮＧ　ＶＡＬＬＥＹ　ＪＡＰＡＮエール　香３５  4901411142234142755000024000000200000000000439800          B0120260303039000399901260303260304   1330            ｻｶｲ       ｻｶｲ                         00                                  D0101　キリン　麒麟特製　レモンサワー　ＡＬＣ．９％３５０ｍｌ        4901411101446184880000024000000200000000000252600          D0102　キリン　本搾り　ライム３５０ｍｌ                              4901411040004185467000024000000200000000000252600          D0103　キリン　氷結　無糖グレープフルーツ　Ａｌｃ．７％　５００ｍｌ  4901411130859185838000024000000100000000000357000          D0104　キリン　ＳＰＲＩＮＧ　ＶＡＬＬＥＹ　豊潤　４９６　３５０ｍｌ  4901411142036142751000024000000200000000000439800          D0105　キリン　本搾りプレミアム　４種のレモンと日向夏３５０ｍｌ      4901411121451181070000024000000100000000000297000          D0106　キリン　本搾りプレミアム　３種の柑橘とシークヮーサー３５０ｍ  4901411121499181072000024000000100000000000297000          B0120260303040000399901260303260304   1330            ｻｶｲ       ｻｶｲ                         00                                  D0101　キリン　氷結　オレンジ３５０ｍｌ                              4901411115856185197000024000000200000000000252600          D0102　月桂冠　定番酒　月（つき）３Ｌ                                4901030229217114171000004000000100000000000530400          B0120260303041000799901260303260304   1330           ｺｳﾖｳ      ｺｳﾖｳ                         00                                  D0101　キリン　氷結　ウメ　３５０ｍｌ                                4901411037165184586000024000000200000000000252600          D0102　２５°いいちこ日田全麹９００ｍｌ（麦）                        4906666181311123346000012000000100000000000847200          D0103　３０°いいちこスペシャル７２０ｍｌ（麦）                      4906666221413122884000006000000100000000001008600          D0104　キリン　氷結　グレープフルーツ３５０ｍｌ                      4901411003085184660000024000000200000000000252600          D0105　月桂冠　糖質・プリン体Ｗゼロ　パック２．７Ｌ                  4901030227008114244000004000000100000000000522400          D0106　サンガリア　うまサワー　グレープフルーツ３４０ｍｌ            4902179023681185658000024000000100000000000183000          B0120260303042000799901260303260304   1330           ｺｳﾖｳ      ｺｳﾖｳ                         00                                  D0101　信州マルス蒸留所ツインアルプス７２０ｍｌ                      4976881510296131008000012000000100000000001658400          D0102　キリン　氷結ストロング　シチリア産レモン　糖質ゼロ　３５０ｍ  4901411035109184525000024000000100000000000252600          D0103　キリン　本搾り　ピンクグレープフルーツ３５０ｍｌ              4901411055480184546000024000000200000000000252600          D0104　２５°いいちこパック９００ｍｌ（麦）                          4906666100558123556000006000000100000000000409800          D0105　キリンクラシックラガー３５０ｍｌ                              4901411004716143178000024000000200000000000391200          D0106　キリンクラシックラガー５００ｍｌ                              4901411004754143180000024000000100000000000516000          B0120260303043000799901260303260304   1330           ｺｳﾖｳ      ｺｳﾖｳ                         00                                  D0101　キリン　零ＩＣＨＩ（ゼロイチ）３５０ｍｌ                      4901411092577211485000024000000400000000000249000          D0102◎２５°楽　やわらかブレンド４Ｌ                                4973480117475121093000004000000100000000000707200          D0103　ジョニーウォーカー　レッドラベル　７００ｍｌ                  5000267014203132439000012000000100000000001401600          D0104　キリン　グリーンズフリー３５０ｍｌ                            4901411116051211643000024000000100000000000249000          D0105○菊水ふなぐち一番しぼり　２００ｍｌ                            4930391140121113177000030000000100000000000726000          D0106　加賀纏純米辛口７２０ｍｌ                                      4976876243567113259000006000000100000000000436800          B0120260303044000799901260303260304   1330           ｺｳﾖｳ      ｺｳﾖｳ                         00                                  D0101　　ギルビー　ウォッカ　３７．５％　７００ｍｌ                  5010103944779162180000012000000100000000000912000          D0102　キリン　麒麟特製　レモンサワー　ＡＬＣ．９％　５００ｍｌ      4901411101484184884000024000000100000000000357000          D0103　キリン　氷結　無糖レモン　Ａｌｃ．９％　５００ｍｌ            4901411118741185707000024000000100000000000357000          D0104　ホワイトホースファインオールド７００ｍｌ                      4901411052809132003000012000000100000000001150800          D0105　キリン　麒麟特製　コーラサワー３５０ｍｌ                      4901411101385184882000024000000200000000000252600          D0106　キリン　本格醸造ノンアルコール　ラガーゼロ３５０ｍｌ          4901411140148251044000024000000200000000000288000          B0120260303045000799901260303260304   1330           ｺｳﾖｳ      ｺｳﾖｳ                         00                                  D0101　キリン　一番搾り　黒生３５０ｍｌ                              4901411079646142247000024000000100000000000391200          D0102　明治屋　広島県産かき燻製油漬７０ｇ                            4902701908271242043000030000000100000000001698000          D0103　明治屋　日本近海育ちオイルサーディン１０５ｇ                  4902701908288242045000030000000100000000001266000          D0104　明治屋　ホワイトマシュマロ９０ｇ                              4902701922956244599000012000000100000000000151200          D0105○キリン　一番搾り１３５ｍｌ                                    4901411148311143011000030000000200000000000251250          D0106　キリン　本搾り　グレープフルーツ　３５０ｍｌ                  4901411076454184178000024000000100000000000252600          B0120260303046000799901260303260304   1330           ｺｳﾖｳ      ｺｳﾖｳ                         00                                  D0101　キリン　麒麟特製　グレープサワー５００ｍｌ                    4901411101552185350000024000000100000000000357000          D0102　フォアローゼス　７００ｍｌ                                    4901411070766132381000012000000100000000001789200          D0103　キリン　まっこい梅酒　パック　２Ｌ                            4901411034966171318000006000000100000000000414600          D0104　キリン　まっこい梅酒　１Ｌ                                    4901411034942171455000006000000100000000000238200          D0105　キリン　ハートランド５００ｍｌ                                0000049575484141004000020000000100000000000546000          D0106　キリン　本搾り　レモン５００ｍｌ                              4901411098937184376000024000000100000000000357000          B0120260303047000799901260303260304   1330           ｺｳﾖｳ      ｺｳﾖｳ                         00                                  D0101　キリン　本搾り　グレープフルーツ５００ｍｌ                    4901411026176184218000024000000100000000000357000          D0102　キリン　ＳＰＲＩＮＧ　ＶＡＬＬＥＹ　ＪＡＰＡＮエール　香３５  4901411142234142755000024000000100000000000439800          D0103　キリン　麒麟特製　レモンサワー　ＡＬＣ．９％３５０ｍｌ        4901411101446184880000024000001000000000000252600          D0104　キリン　本搾り　ライム３５０ｍｌ                              4901411040004185467000024000000100000000000252600          D0105　キリン　本搾りプレミアム　４種のレモンと日向夏３５０ｍｌ      4901411121451181070000024000000100000000000297000          D0106　秋田の雪１．８Ｌ                                              4967860038139113384000006000000100000000000526800          B0120260303048000799901260303260304   1330           ｺｳﾖｳ      ｺｳﾖｳ                         00                                  D0101　キリン　自然が磨いた天然水２Ｌ                                4909411089030210878000006000000400000000000061800          D0102　月桂冠　定番酒　月（つき）３Ｌ                                4901030229217114171000004000000100000000000530400          D0103　月桂冠　定番酒　月（つき）２Ｌ                                4901030232019114170000006000000100000000000543600          B0120260303049000899901260303260304   1330          ﾌﾟﾗｻﾞ     ﾌﾟﾗｻﾞ                         00                                  D0101　キリン　氷結　ウメ　３５０ｍｌ                                4901411037165184586000024000000200000000000252600          D0102○キリン　一番搾り２５０ｍｌ                                    4901411511818143062000024000000100000000000312600          D0103　２５°いいちこ民陶　くろびん７２０ｍｌ（麦）                  4906666142435123063000006000000100000000000746400          D0104　ＭＹ　グレナデン　シロップ３００ｍｌ                          4902701352180241040000012000000100000000000292800          D0105　メルシャン　無添加ふくよか　赤　１．５Ｌ                      4973480311477151243000006000000100000000000472800          D0106◎２５°楽　やわらかブレンド４Ｌ                                4973480117475121093000004000000100000000000707200          B0120260303050000899901260303260304   1330          ﾌﾟﾗｻﾞ     ﾌﾟﾗｻﾞ                         00                                  D0101　スミノフウオッカ５０°　７５０ｍｌ                            4901411031354162047000012000000100000000001238400          D0102　キリン　本搾り　オレンジ　３５０ｍｌ                          4901411039985184669000024000000100000000000252600          D0103　キリン　氷結　九州産ゆず３５０ｍｌ                            4901411124377185923000024000000100000000000252600          D0104　３０°いいちこ「空山独酌」７２０ｍｌ（麦）                    4906666100060122984000006000000100000000000909600          D0105　メルシャン　おいしい酸化防止剤無添加　ジューシー赤　７２０ｍ  4973480329069151364000012000000100000000000516000          D0106　菊水ふなぐち一番しぼり　ボトル缶５００ｍｌ                    4930391140817113235000024000000100000000001471200          B0120260303051000899901260303260304   1330          ﾌﾟﾗｻﾞ     ﾌﾟﾗｻﾞ                         00                                  D0101　月桂冠スペシャルフリー　ノンアルコール瓶２４５ｍｌ            4901030367063210737000012000000100000000000386400          D0102　スミノフウオッカ４０°　７５０ｍｌ                            4901411031316162048000012000000100000000001183200          D0103　月桂冠上撰さけパック　プレミアムブレンド１．８Ｌ              4901030108468114140000006000000100000000000773400          D0104　國盛　酒蔵のあまざけ５００ｍｌ                                4978526100626210031000012000000100000000000417600          D0105　キリン　麒麟特製　ホワイトサワー３５０ｍｌ                    4901411101590185089000024000000100000000000252600          D0106　キリン　氷結ＺＥＲＯ　レモン　５００ｍｌ                      4901411047560184424000024000000200000000000357000          B0120260303052000899901260303260304   1330          ﾌﾟﾗｻﾞ     ﾌﾟﾗｻﾞ                         00                                  D0101　キリン　麒麟特製　ジンジャーエールサワー３５０ｍｌ            4901411126784185972000024000000300000000000252600          D0102　キリン　氷結　無糖シークヮーサー　ＡＬＣ．７％　５００ｍｌ    4901411122076185953000024000000200000000000357000          D0103　キリン　クラシックラガー　小瓶３３４ｍｌ                      4901411001166141050000030000000100000000000502520          D0104　４３°ゴードン　ロンドン　ドライジン　７５０ｍｌ              5000289020701162067000012000000100000000001398000          D0105　Ｊ－ＣＲＡＦＴ　ＴＲＩＰ　加賀しずくサワー３５０ｍｌ          4962840968420181164000024000000100000000000295200          D0106　キリン　麒麟特製　レモンサワー　ＡＬＣ．９％３５０ｍｌ        4901411101446184880000024000000400000000000252600          B0120260303053000899901260303260304   1330          ﾌﾟﾗｻﾞ     ﾌﾟﾗｻﾞ                         00                                  D0101　ラガヴーリン　８年　７００ｍｌ                                5000281050553132534000006000000100000000003168600          D0102　キリン　本搾りプレミアム　４種のレモンと日向夏３５０ｍｌ      4901411121451181070000024000000100000000000297000          D0103　キリン　自然が磨いた天然水２Ｌ                                4909411089030210878000006000000600000000000061800          B0120260303054001199901260303260304   1330          ｴﾁｾﾞﾝ     ｴﾁｾﾞﾝ                         00                                  D0101　キリン　氷結　ウメ　３５０ｍｌ                                4901411037165184586000024000000100000000000252600          D0102　３０°いいちこスペシャル７２０ｍｌ（麦）                      4906666221413122884000006000000100000000001008600          D0103○キリン　一番搾り２５０ｍｌ                                    4901411511818143062000024000000100000000000312600          D0104　メルシャン　ギュギュッと搾ったサングリア　オレンジ＆カシスＭ  4973480341191154044000024000000100000000000996000          D0105　ベイリーズ　アイリッシュクリーム　７００ｍｌ                  5011013100156172082000012000000100000000001731600          D0106　ギルビー　ジン４７．５°　７００ｍｌ                          5010103944830162162000012000000100000000001165200          B0120260303055001199901260303260304   1330          ｴﾁｾﾞﾝ     ｴﾁｾﾞﾝ                         00                                  D0101　キリンクラシックラガー５００ｍｌ                              4901411004754143180000024000000100000000000516000          D0102　ダンシングフレーム　カベルネソービニヨン　７５０ｍｌ          4962840962817157894000012000000100000000000519600          D0103◎２５°楽　やわらかブレンド４Ｌ                                4973480117475121093000004000000100000000000707200          D0104　ＭＹ　レモン７２０ｍｌ                                        4902701352142241037000012000000100000000000441600          D0105　永昌源藍苺酒５００ｍｌ                                        4901411067506183081000012000000100000000000669600          D0106　ハイネケン３５０ｍｌ                                          4595315464037143052000024000000200000000000445200          B0120260303056001199901260303260304   1330          ｴﾁｾﾞﾝ     ｴﾁｾﾞﾝ                         00                                  D0101　加賀纏純米辛口７２０ｍｌ                                      4976876243567113259000006000000100000000000436800          D0102　月桂冠山田錦純米パック１．８Ｌ                                4901030205969114130000006000000100000000000759600          D0103　ホワイトホースファインオールド７００ｍｌ                      4901411052809132003000012000000100000000001150800          D0104○月桂冠上撰　キャップエース１８０ｍｌ                          4901030172018111056000030000000100000000000528000          D0105　キリン　上々　焼酎ソーダ　５００ｍｌ                          4901411121673185988000024000000100000000000403200          D0106　キリン　一番搾り　黒生３５０ｍｌ                              4901411079646142247000024000000200000000000391200          B0120260303057001199901260303260304   1330          ｴﾁｾﾞﾝ     ｴﾁｾﾞﾝ                         00                                  D0101　國盛　酒蔵のあまざけ５００ｍｌ                                4978526100626210031000012000000100000000000417600          D0102　菊水　菊水の淡麗甘口７２０ｍｌ                                4930391130818118624000012000000100000000000874800          D0103　キリン　本搾り　辺塚だいだいと柑橘ブレンド　季節厳選３５０ｍ  4901411146362185283000024000000100000000000272400          D0104　クレイモア　７００ｍｌ                                        5010196023313132019000012000000100000000001035600          D0105　キリン　生茶２Ｌペット                                        4909411069100215032000006000000200000000000102000          D0106　キリン　氷結　シャルドネスパークリング　３５０ｍｌ            4901411034683184401000024000000100000000000252600          B0120260303058001199901260303260304   1330          ｴﾁｾﾞﾝ     ｴﾁｾﾞﾝ                         00                                  D0101　キリン　氷結　ｍｏｔｔａｉｎａｉ　尾花沢すいか３５０ｍｌ      4901411140667185061000024000000100000000000273600          D0102　マイヤーズラム　７００ｍｌ                                    0088004039325162007000012000000100000000001291200          D0103　キリン　本搾り　レモン５００ｍｌ                              4901411098937184376000024000000100000000000357000          D0104　キャプテンモルガン　スパイストラム　７５０ｍｌ                0087000002715162109000012000000100000000002134800          D0105　スッパイマン梅サワー３５０ｍｌ                                4962840968574185499000024000000100000000000297600          D0106　キリン　氷結　無糖レモン　Ａｌｃ．７％５００ｍｌ              4901411118727185523000024000000100000000000357000          B0120260303059001199901260303260304   1330          ｴﾁｾﾞﾝ     ｴﾁｾﾞﾝ                         00                                  D0101　ホワイトホース　ファインオールド　２．７Ｌ                    4901411081519132495000006000000100000000002035800          D0102　ＩＷハーパー　ゴールドメダル　７００ｍｌ                      5000281066974132494000012000000100000000002174400          D0103　ダンシングフレイム　シャルドネ　７５０ｍｌ                    4962840962848157915000012000000100000000000519600          B0120260303060000999901260303260304   1330           ｳﾞｨｵ      ｳﾞｨｵ                         00                                  D0101　ジョニーウォーカー　ブラックラベル　２００ｍｌ                4901411040912132711000024000000100000000001459200          D0102　ホワイトホース　樽詰めハイボール　７Ｌ                        4901411078403171447000001000000000000010000481900          D0103　ＭＹ　レモン３００ｍｌ                                        4902701352173241039000012000000100000000000278400          D0104　３０°いいちこフラスコボトル７２０ｍｌ                        4906666183414122322000006000000100000000001151400          D0105　キリン　本搾り　ピンクグレープフルーツ３５０ｍｌ              4901411055480184546000024000000100000000000252600          D0106　メルシャン　無添加ペットボトル　白　１．５Ｌ                  4973480311491151248000006000000100000000000472800          B0120260303061000999901260303260304   1330           ｳﾞｨｵ      ｳﾞｨｵ                         00                                  D0101　２０°いいちこパック９００ｍｌ（麦）                          4906666112322122972000006000000100000000000361800          D0102　ダンシングフレーム　カベルネソービニヨン　７５０ｍｌ          4962840962817157894000012000000100000000000519600          D0103◎２５°楽　やわらかブレンド４Ｌ                                4973480117475121093000004000000100000000000707200          D0104　キリン　本搾り　レモン　３５０ｍｌ                            4901411025896184299000024000000100000000000252600          D0105　ジョニーウォーカー　レッドラベル　７００ｍｌ                  5000267014203132439000012000000100000000001401600          D0106　メルシャン　おいしい酸化防止無添加ワイン　赤　７２０ｍｌ      4973480326938151326000012000000100000000000516000          B0120260303062000999901260303260304   1330           ｳﾞｨｵ      ｳﾞｨｵ                         00                                  D0101　ダンシングフレイム　メルロ　７５０ｍｌ                        4962840966006157903000012000000100000000000519600          D0102○デカイパー　ピーチツリー　７００ｍｌ                          4901411031217172017000006000000100000000000784200          D0103　キリン　氷結　無糖　レモン　コンク１．８Ｌ                    4901411106274171909000006000000100000000001320000          D0104　タンカレージン４７°７５０ｍｌ                                5000291020706162057000012000000100000000001730400          D0105　月桂冠辛口パック３Ｌ                                          4901030231067114064000004000000100000000000508000          D0106　月桂冠辛口パック２Ｌ                                          4901030225660114135000006000000100000000000517800          B0120260303063000999901260303260304   1330           ｳﾞｨｵ      ｳﾞｨｵ                         00                                  D0101　キリン　のどごし　ＺＥＲＯ５００ｍｌ                          4901411089638147214000024000000200000000000427800          D0102　キリン　一番搾り　黒生３５０ｍｌ                              4901411079646142247000024000000100000000000391200          D0103　キリン　ハートランド３３０ｍｌ                                0000049575651141081000030000000100000000000558020          D0104　ホワイトホース１２年　７００ｍｌ                              4901411031675132013000012000000100000000002196000          D0105　キリン　カラダＦＲＥＥ３５０ｍｌ                              4901411092157210747000024000000100000000000273600          D0106　ドラフトギネス缶３３０ｍｌ                                    0000050213245144005000024000000100000000000553800          B0120260303064000999901260303260304   1330           ｳﾞｨｵ      ｳﾞｨｵ                         00                                  D0101　キリン　氷結ＺＥＲＯ　レモン　５００ｍｌ                      4901411047560184424000024000000100000000000357000          D0102　キリン　本搾り　グレープフルーツ　３５０ｍｌ                  4901411076454184178000024000000300000000000252600          D0103　クレイモア　７００ｍｌ                                        5010196023313132019000012000000100000000001035600          D0104　キリン　麒麟特製　レモンサワー　ＡＬＣ．９％３５０ｍｌ        4901411101446184880000024000000200000000000252600          D0105　ダンシングフレイム　シャルドネ　７５０ｍｌ                    4962840962848157915000012000000100000000000519600          D0106　キリン　午後の紅茶　ストレートティー１．５Ｌ                  4909411086275214047000008000000100000000000165600          B0120260303065002199901260303260304   1330            ｴﾓﾘ       ｴﾓﾘ                         00                                  D0101　ホワイト＆マッカイ　スペシャル　７００ｍｌ                    5013967004672132217000012000000100000000001777200          D0102　キリン　氷結　無糖グレープフルーツ　Ａｌｃ．７％　３５０ｍｌ  4901411130835185837000024000000200000000000252600          D0103　３０°いいちこスペシャル７２０ｍｌ（麦）                      4906666221413122884000006000000100000000001008600          D0104　メルシャン　ドレッシー　ロゼ　３６０ｍｌ                      4973480307500155130000012000000100000000000484800          D0105　ギルビー　ジン４７．５°　７００ｍｌ                          5010103944830162162000012000000100000000001165200          D0106　明治屋　牛肉和風甘辛煮７５ｇ                                  4902701908158242072000024000000100000000001082400          B0120260303066002199901260303260304   1330            ｴﾓﾘ       ｴﾓﾘ                         00                                  D0101　キリン　かろやか梅酒　パック２Ｌ                              4901411029467171235000006000000100000000000413400          D0102　メルシャン　無添加ペットボトル　白　１．５Ｌ                  4973480311491151248000006000000100000000000472800          D0103　２５°いいちこパック９００ｍｌ（麦）                          4906666100558123556000006000000100000000000409800          D0104　信州マルス蒸留所３＆７７２０ｍｌ                              4976881520745131013000012000000100000000001305600          D0105　月桂冠上撰　瓶１．８Ｌ                                        4901030110010111048000006000000100000000000779400          D0106　２０°いいちこパック９００ｍｌ（麦）                          4906666112322122972000006000000100000000000361800          B0120260303067002199901260303260304   1330            ｴﾓﾘ       ｴﾓﾘ                         00                                  D0101　キリン　零ＩＣＨＩ（ゼロイチ）３５０ｍｌ                      4901411092577211485000024000000400000000000249000          D0102　スミノフウオッカ５０°　７５０ｍｌ                            4901411031354162047000012000000100000000001238400          D0103　サンガリア　つぶチュー　温州みかん　３４０ｍｌ                4902179021212184202000024000000100000000000207600          D0104　ジョニーウォーカー　レッドラベル　７００ｍｌ                  5000267014203132439000012000000100000000001401600          D0105○キリン　杏露酒　５００ｍｌ                                    4901411067322183028000012000000100000000000669600          D0106　明治屋　牛肉の粗挽き黒胡椒味４０ｇ                            4902701908141242235000024000000100000000001032000          B0120260303068002199901260303260304   1330            ｴﾓﾘ       ｴﾓﾘ                         00                                  D0101　ハイネケン３５０ｍｌ                                          4595315464037143052000024000000100000000000445200          D0102　明治屋　おいしい缶詰　北海道産つぶ貝のアヒージョ６５ｇ        4902701916047242348000024000000100000000000907200          D0103　キリン　氷ゼロ　スパークリング　シチリア産レモン３５０ｍｌ    4901411145716251026000024000000100000000000223200          D0104　　ギルビー　ウォッカ　３７．５％　３５０ｍｌ                  5010103944854162179000024000000100000000001113600          D0105　スミノフウオッカ４０°　７５０ｍｌ                            4901411031316162048000012000000100000000001183200          D0106○月桂冠上撰　キャップエース１８０ｍｌ                          4901030172018111056000030000000100000000000528000          B0120260303069002199901260303260304   1330            ｴﾓﾘ       ｴﾓﾘ                         00                                  D0101　菊水　菊水の淡麗甘口１．８Ｌ                                  4930391130801113094000006000000100000000000924600          D0102　キリン　のどごし　ＺＥＲＯ５００ｍｌ                          4901411089638147214000024000000100000000000427800          D0103　キリン　零ＩＣＨＩ（ゼロイチ）２５０ｍｌ                      4901411092614211539000024000000100000000000196800          D0104○キリン　一番搾り１３５ｍｌ                                    4901411148311143011000030000000100000000000251250          D0105　キリン　カラダＦＲＥＥ３５０ｍｌ                              4901411092157210747000024000000200000000000273600          D0106　キリン　氷結ＺＥＲＯ　レモン　５００ｍｌ                      4901411047560184424000024000000100000000000357000          B0120260303070002199901260303260304   1330            ｴﾓﾘ       ｴﾓﾘ                         00                                  D0101　Ｊ－ＣＲＡＦＴ　ＨＯＰＰＩＮＧ　ジューシーＩＰＡ３５０ｍｌ    4962840966709142366000024000000100000000000590400          D0102　キリン　麒麟特製　ジンジャーエールサワー３５０ｍｌ            4901411126784185972000024000000100000000000252600          D0103　クレイモア　７００ｍｌ                                        5010196023313132019000012000000100000000001035600          D0104　フランジア　バックインボックス（赤）３Ｌ                      4973480320226152329000004000000100000000000632800          D0105　Ｊ－ＣＲＡＦＴ　ＨＯＰＰＩＮＧ　ガツんとＩＰＡ３５０ｍｌ      4962840966693142365000024000000100000000000590400          D0106　キリン　トロピカーナオレンジ　ＬＬスリム１Ｌ                  4909411076672213031000006000000100000000000175200          B0120260303071002199901260303260304   1330            ｴﾓﾘ       ｴﾓﾘ                         00                                  D0101　スミノフアイス　２７５ｍｌ                                    5410316982061184166000024000000100000000000453600          D0102　キリン　氷結ＺＥＲＯ　グレープフルーツ　３５０ｍｌ            4901411047584184423000024000000200000000000252600          D0103　３７．５°ゴードン　ロンドン　ドライジン　７００ｍｌ          5000289925440162002000012000000100000000001236000          D0104　４３°ゴードン　ロンドン　ドライジン　７５０ｍｌ              5000289020701162067000012000000100000000001398000          D0105　キャプテンモルガン　スパイストラム　７５０ｍｌ                0087000002715162109000012000000100000000002134800          D0106　Ｊ－ＣＲＡＦＴ　ＴＲＩＰ　加賀しずくサワー３５０ｍｌ          4962840968420181164000024000000100000000000295200          B0120260303072002199901260303260304   1330            ｴﾓﾘ       ｴﾓﾘ                         00                                  D0101　キリン　麒麟百年　極み仕立て　グレフルサワー３５０ｍｌ        4901411130279185966000024000000100000000000268800          D0102　キリン　氷結　無糖レモン　Ａｌｃ．４％　５００ｍｌ            4901411118697185525000024000000100000000000357000          D0103　キリン　氷結　無糖グレープフルーツ　Ａｌｃ．７％　５００ｍｌ  4901411130859185838000024000000100000000000357000          D0104　キリン　本搾りプレミアム　４種のレモンと日向夏３５０ｍｌ      4901411121451181070000024000000100000000000297000          D0105　キリン　本搾りプレミアム　３種の柑橘とシークヮーサー３５０ｍ  4901411121499181072000024000000100000000000297000          D0106　ホワイトホースファインオールド　１Ｌ                          4901411039077132386000006000000100000000000784800          B0120260303073002199901260303260304   1330            ｴﾓﾘ       ｴﾓﾘ                         00                                  D0101　ＩＷハーパー　ゴールドメダル　７００ｍｌ                      5000281066974132494000012000000100000000002174400          D0102　ダンシングフレイム　シャルドネ　７５０ｍｌ                    4962840962848157915000012000000100000000000519600          B0120260303074001099901260303260304   1330           ﾂﾙｶﾞ      ﾂﾙｶﾞ                         00                                  D0101　キリン　氷結　無糖グレープフルーツ　Ａｌｃ．７％　３５０ｍｌ  4901411130835185837000024000000100000000000252600          D0102　２５°いいちこ日田全麹９００ｍｌ（麦）                        4906666181311123346000012000000100000000000847200          D0103　月桂冠　糖質・プリン体Ｗゼロ　パック２．７Ｌ                  4901030227008114244000004000000100000000000522400          D0104　キリン　ホワイトホース　ハイボール３５０ｍｌ                  4901411086798185054000024000000200000000000374400          D0105　メルシャン　ドレッシー　ロゼ　３６０ｍｌ                      4973480307500155130000012000000100000000000484800          D0106　　ギルビー　ジン　３７．５％　７００ｍｌ                      5010103944687162178000012000000100000000000912000          B0120260303075001099901260303260304   1330           ﾂﾙｶﾞ      ﾂﾙｶﾞ                         00                                  D0101　ＭＹ　レモン３００ｍｌ                                        4902701352173241039000012000000100000000000278400          D0102　２５°いいちこ民陶　くろびん７２０ｍｌ（麦）                  4906666142435123063000006000000100000000000746400          D0103　キリン　本搾り　ピンクグレープフルーツ３５０ｍｌ              4901411055480184546000024000000200000000000252600          D0104　キリンハートランド　樽７Ｌ                                    4901411182803145006000001000000000000010000412200          D0105　キリンクラシックラガー３５０ｍｌ                              4901411004716143178000024000000100000000000391200          D0106　キリンクラシックラガー５００ｍｌ                              4901411004754143180000024000000100000000000516000          B0120260303076001099901260303260304   1330           ﾂﾙｶﾞ      ﾂﾙｶﾞ                         00                                  D0101　キリン　零ＩＣＨＩ（ゼロイチ）３５０ｍｌ                      4901411092577211485000024000000100000000000249000          D0102　キリンハートランド　樽１５Ｌ                                  4901411181707145015000001000000000000020000769200          D0103○キリン　杏露酒　５００ｍｌ                                    4901411067322183028000012000000100000000000669600          D0104　キリン　本搾り　オレンジ　３５０ｍｌ                          4901411039985184669000024000000200000000000252600          D0105　３０°いいちこ「空山独酌」７２０ｍｌ（麦）                    4906666100060122984000006000000100000000000909600          D0106　キリン　ブラウマイスター　生樽７Ｌ                            4901411004389143002000001000000000000010000432500          B0120260303077001099901260303260304   1330           ﾂﾙｶﾞ      ﾂﾙｶﾞ                         00                                  D0101　キリン　生茶　５２５ｍｌペット                                4909411091903215031000024000000200000000000218400          D0102　ハイネケン３５０ｍｌ                                          4595315464037143052000024000000100000000000445200          D0103○デカイパー　ピーチツリー　７００ｍｌ                          4901411031217172017000006000000100000000000784200          D0104　メルシャン　おいしい酸化防止無添加ワイン　白　７２０ｍｌ      4973480326952151327000012000000100000000000516000          D0105　キリン　氷結ストロング　グレープフルーツ　糖類ゼロ　３５０ｍ  4901411035161184536000024000000300000000000252600          D0106　２０°メルシャン大喜利ペット４Ｌ                              4973480161010121163000004000000100000000000525600          B0120260303078001099901260303260304   1330           ﾂﾙｶﾞ      ﾂﾙｶﾞ                         00                                  D0101　キリン　一番搾り生３ＬＰＥＴ　                                4901411108933143209000003000000100000000000402000          D0102　キリン　ウィスキー陸　５００ｍｌ                              4901411116853131281000012000000100000000001382400          D0103　キリン　氷結　無糖レモン　Ａｌｃ．９％　５００ｍｌ            4901411118741185707000024000000100000000000357000          D0104　ホワイトホースファインオールド７００ｍｌ                      4901411052809132003000012000000100000000001150800          D0105○月桂冠上撰　キャップエース１８０ｍｌ                          4901030172018111056000030000000100000000000528000          D0106　キリン　麒麟特製　コーラサワー３５０ｍｌ                      4901411101385184882000024000000100000000000252600          B0120260303079001099901260303260304   1330           ﾂﾙｶﾞ      ﾂﾙｶﾞ                         00                                  D0101　キリン　のどごし　ＺＥＲＯ５００ｍｌ                          4901411089638147214000024000000200000000000427800          D0102　キリン樽詰サワー１５Ｌ                                        4901411503400171184000001000000000000020000575700          D0103　キリンウィスキー陸　４Ｌ                                      4901411104232131324000004000000100000000003190800          D0104○キリン　一番搾り１３５ｍｌ                                    4901411148311143011000030000000100000000000251250          D0105　メルシャン美味しい酸化防止剤無添加白ワイン　厳選素材　７２０  4973480333943151072000012000000100000000000552000          D0106　ドラフトギネス缶３３０ｍｌ                                    0000050213245144005000024000000100000000000553800          B0120260303080001099901260303260304   1330           ﾂﾙｶﾞ      ﾂﾙｶﾞ                         00                                  D0101　キリン　氷結ＺＥＲＯ　レモン　５００ｍｌ                      4901411047560184424000024000000200000000000357000          D0102　キリン　本搾り　グレープフルーツ　３５０ｍｌ                  4901411076454184178000024000000400000000000252600          D0103　朝日山　本醸造７２０ｍｌ                                      4984283630078113753000006000000100000000000367800          D0104　クレイモア　７００ｍｌ                                        5010196023313132019000012000000100000000001035600          D0105　キリン　麒麟特製　グレープサワー３５０ｍｌ                    4901411101538185349000024000000100000000000252600          D0106　フランジア　バックインボックス（白）３Ｌ                      4973480320233152332000004000000100000000000632800          B0120260303081001099901260303260304   1330           ﾂﾙｶﾞ      ﾂﾙｶﾞ                         00                                  D0101○ギネス・瓶３３０ｍｌ                                          4901411055152142016000024000000100000000000553800          D0102　メルシャン　おいしい酸化防止剤無添加赤ワイン　厳選素材　７２  4973480333936151034000012000000100000000000552000          D0103　キリン　氷結　シャルドネスパークリング　３５０ｍｌ            4901411034683184401000024000000100000000000252600          D0104　キリン　トロピカーナオレンジ　ＬＬスリム１Ｌ                  4909411076672213031000006000000100000000000175200          D0105　キリン　まっこい梅酒　１Ｌ                                    4901411034942171455000006000000100000000000238200          D0106　マイヤーズラム　７００ｍｌ                                    0088004039325162007000012000000100000000001291200          B0120260303082001099901260303260304   1330           ﾂﾙｶﾞ      ﾂﾙｶﾞ                         00                                  D0101　キリン麒麟淡麗＜生＞２５０ｍｌ                                4901411512914143055000024000000200000000000250800          D0102　キリン　氷結ＺＥＲＯ　グレープフルーツ　３５０ｍｌ            4901411047584184423000024000000900000000000252600          D0103　キリン　麒麟特製　レモンサワー　ＡＬＣ．９％３５０ｍｌ        4901411101446184880000024000000100000000000252600          D0104　キリン　本搾り　ライム３５０ｍｌ                              4901411040004185467000024000000200000000000252600          D0105　キリン　麒麟百年　極み仕立て　グレフルサワー３５０ｍｌ        4901411130279185966000024000000100000000000268800          D0106　キリン　氷結　無糖レモン　Ａｌｃ．４％　５００ｍｌ            4901411118697185525000024000000200000000000357000          B0120260303083001099901260303260304   1330           ﾂﾙｶﾞ      ﾂﾙｶﾞ                         00                                  D0101　キリン　ＳＰＲＩＮＧ　ＶＡＬＬＥＹ　豊潤　４９６　３５０ｍｌ  4901411142036142751000024000000100000000000439800          D0102　ホワイトホース　ファインオールド　２．７Ｌ                    4901411081519132495000006000000100000000002035800          D0103　キリン　本搾りプレミアム　４種のレモンと日向夏３５０ｍｌ      4901411121451181070000024000000100000000000297000          D0104　キリン　氷結　無糖グレープフルーツ　Ａｌｃ．４％　３５０ｍｌ  4901411113678185835000024000000100000000000252600          D0105　ＩＷハーパー　ゴールドメダル　７００ｍｌ                      5000281066974132494000012000000100000000002174400          D0106　キリン　ＳＰＲＩＮＧ　ＶＡＬＬＥＹ　シルクエール白３５０ｍｌ  4901411142128142753000024000000100000000000439800          B0120260303084001099901260303260304   1330           ﾂﾙｶﾞ      ﾂﾙｶﾞ                         00                                  D0101　ジョニーウォーカー　ブラックルビー　７００ｍｌ                5000267198576135125000006000000100000000001671000          D0102　キリン　氷ゼロ　スパークリング　グレープフルーツ３５０ｍｌ    4901411149943251054000024000000100000000000223200          B0120260303085000199901260303260304   1330           ﾎﾝﾃﾝ      ﾎﾝﾃﾝ                         00                                  D0101　キリン　氷結　グレープフルーツ３５０ｍｌ                      4901411003085184660000024000000200000000000252600          D0102　キリン麒麟淡麗＜生＞２５０ｍｌ                                4901411512914143055000024000000200000000000250800          D0103　３０°いいちこフラスコボトル７２０ｍｌ                        4906666183414122322000006000000100000000001151400          D0104　キリン　本搾り　ピンクグレープフルーツ３５０ｍｌ              4901411055480184546000024000000100000000000252600          D0105　キリン　陸　ハイボール３５０ｍｌ                              4901411113555181248000024000000100000000000360000          D0106　２５°いいちこパック９００ｍｌ（麦）                          4906666100558123556000006000000100000000000409800          B0120260303086000199901260303260304   1330           ﾎﾝﾃﾝ      ﾎﾝﾃﾝ                         00                                  D0101　キリンクラシックラガー５００ｍｌ                              4901411004754143180000024000000200000000000516000          D0102　スミノフアイス　ワイルドグレープ２７５ｍｌ                    4901411044842184828000024000000100000000000453600          D0103　キリン　零ＩＣＨＩ（ゼロイチ）３５０ｍｌ                      4901411092577211485000024000000300000000000249000          D0104　キリン　本搾り　レモン　３５０ｍｌ                            4901411025896184299000024000000100000000000252600          D0105　ジョニーウォーカー　ブラックラベル１２年　７００ｍｌ          5000267024233132438000012000000100000000002738400          D0106　ジョニーウォーカー　レッドラベル　７００ｍｌ                  5000267014203132439000012000000100000000001401600          B0120260303087000199901260303260304   1330           ﾎﾝﾃﾝ      ﾎﾝﾃﾝ                         00                                  D0101○２０°いいちこ（麦）瓶９００ｍｌ                              4906666112315122172000012000000100000000000736800          D0102○キリン　杏露酒　５００ｍｌ                                    4901411067322183028000012000000100000000000669600          D0103　キリン　本搾り　オレンジ　３５０ｍｌ                          4901411039985184669000024000000100000000000252600          D0104　キリン　グリーンズフリー３５０ｍｌ                            4901411116051211643000024000000100000000000249000          D0105　明治屋　牛肉の粗挽き黒胡椒味４０ｇ                            4902701908141242235000024000000100000000001032000          D0106　ハイネケン３５０ｍｌ                                          4595315464037143052000024000000100000000000445200          B0120260303088000199901260303260304   1330           ﾎﾝﾃﾝ      ﾎﾝﾃﾝ                         00                                  D0101　幻の瀧純米吟醸７２０ｍｌ（青ラベル）                          4984526002525113264000012000000100000000000873600          D0102　キリン　ファイア　ブラック１８５ｇ                            4909411083328214017000030000000100000000000195000          D0103　キリン　氷結　無糖　レモン　コンク１．８Ｌ                    4901411106274171909000006000000100000000001320000          D0104　明治屋　ホワイトマシュマロ９０ｇ                              4902701922956244599000012000000100000000000151200          D0105　ホワイトホースファインオールド７００ｍｌ                      4901411052809132003000012000000100000000001150800          D0106○月桂冠上撰　キャップエース１８０ｍｌ                          4901030172018111056000030000000100000000000528000          B0120260303089000199901260303260304   1330           ﾎﾝﾃﾝ      ﾎﾝﾃﾝ                         00                                  D0101　キリン　麒麟特製　コーラサワー３５０ｍｌ                      4901411101385184882000024000000100000000000252600          D0102　ダンシングフレイム　ソーヴィニヨンブラン　７５０ｍｌ          4962840962831157919000012000000100000000000519600          D0103　キリン　上々　焼酎ソーダ　５００ｍｌ                          4901411121673185988000024000000100000000000403200          D0104　キリン　のどごし　ＺＥＲＯ５００ｍｌ                          4901411089638147214000024000000200000000000427800          D0105　キリン　一番搾り　黒生３５０ｍｌ                              4901411079646142247000024000000100000000000391200          D0106　マイヤーズラム　２００ｍｌ                                    0088004039301162129000048000000100000000002428800          B0120260303090000199901260303260304   1330           ﾎﾝﾃﾝ      ﾎﾝﾃﾝ                         00                                  D0101○キリン　一番搾り１３５ｍｌ                                    4901411148311143011000030000000100000000000251250          D0102　フランジア　バックインボックス（赤）３Ｌ                      4973480320226152329000004000000100000000000632800          D0103　メルシャン　甘熟ぶどうのおいしいワイン　赤　５００ｍｌ        4973480300044151208000012000000100000000000588000          D0104　キリン　氷結　無糖シークヮーサー　ＡＬＣ．７％　３５０ｍｌ    4901411122052185952000024000000200000000000252600          D0105　３７．５°ゴードン　ロンドン　ドライジン　７００ｍｌ          5000289925440162002000012000000100000000001236000          D0106　秋田の雪１．８Ｌ                                              4967860038139113384000006000000100000000000526800          B0120260303091000199901260303260304   1330           ﾎﾝﾃﾝ      ﾎﾝﾃﾝ                         00                                  D0101　キリン　ＳＰＲＩＮＧ　ＶＡＬＬＥＹ　ＪＡＰＡＮエール　香３５  4901411142234142755000024000000100000000000439800          D0102　キリン　麒麟特製　レモンサワー　ＡＬＣ．９％３５０ｍｌ        4901411101446184880000024000000500000000000252600          D0103　キリン　本搾り　ライム３５０ｍｌ                              4901411040004185467000024000000100000000000252600          D0104　ホワイトホース　ファインオールド　２．７Ｌ                    4901411081519132495000006000000100000000002035800          D0105　キリン　氷結　無糖ウメ　Ａｌｃ．７％　３５０ｍｌ              4901411134536181084000024000000100000000000252600          D0106　フォアローゼスブラック　７００ｍｌ                            5000299101940132497000012000000100000000003536400          B0120260303092000199901260303260304   1330           ﾎﾝﾃﾝ      ﾎﾝﾃﾝ                         00                                  D0101　キリン　氷ゼロ　スパークリング　グレープフルーツ３５０ｍｌ    4901411149943251054000024000000100000000000223200          D0102　キリン　自然が磨いた天然水２Ｌ                                4909411089030210878000006000000500000000000061800          B0120260303093009899901260303260304   1330     ｶﾅｻﾞﾜｷﾞｮｳﾑｶﾅｻﾞﾜｷﾞｮｳﾑ                         00                                  D0101　キリン炭酸ガス　ボンベ付５Ｋｇ                                4901411188102411083000001000000000000080000740000          D0102　キリン　晴れ風　中瓶５００ｍｌ                                4901411140049141314000020000000500000000000482800          D0103　レッドブル　２５０ｍｌ缶                                      4560292290016212198000024000000200000000000302400          D0104○２５°いいちこ（麦）パック１．８Ｌ                            4906666111127122279000006000000100000000000786000          D0105　キリン　氷結　グレープフルーツ５００ｍｌ                      4901411000428184661000024000000100000000000357000          D0106　キリン　一番搾り　生樽２０Ｌ                                  4901411150208143015000001000000000000190000992200          B0120260303094009899901260303260304   1330     ｶﾅｻﾞﾜｷﾞｮｳﾑｶﾅｻﾞﾜｷﾞｮｳﾑ                         00                                  D0101　キリン　午後の紅茶　おいしい無糖２Ｌ                          4909411048754215177000006000000100000000000102000          8                                                                                                                               